{
  "contractName": "Wallet",
  "abi": [
    {
      "inputs": [
        {
          "internalType": "address[]",
          "name": "_approvers",
          "type": "address[]"
        },
        {
          "internalType": "uint256",
          "name": "_quorum",
          "type": "uint256"
        }
      ],
      "stateMutability": "nonpayable",
      "type": "constructor"
    },
    {
      "inputs": [
        {
          "internalType": "address",
          "name": "",
          "type": "address"
        },
        {
          "internalType": "uint256",
          "name": "",
          "type": "uint256"
        }
      ],
      "name": "approvals",
      "outputs": [
        {
          "internalType": "bool",
          "name": "",
          "type": "bool"
        }
      ],
      "stateMutability": "view",
      "type": "function"
    },
    {
      "inputs": [
        {
          "internalType": "uint256",
          "name": "",
          "type": "uint256"
        }
      ],
      "name": "approvers",
      "outputs": [
        {
          "internalType": "address",
          "name": "",
          "type": "address"
        }
      ],
      "stateMutability": "view",
      "type": "function"
    },
    {
      "inputs": [],
      "name": "nextId",
      "outputs": [
        {
          "internalType": "uint256",
          "name": "",
          "type": "uint256"
        }
      ],
      "stateMutability": "view",
      "type": "function"
    },
    {
      "inputs": [],
      "name": "quorum",
      "outputs": [
        {
          "internalType": "uint256",
          "name": "",
          "type": "uint256"
        }
      ],
      "stateMutability": "view",
      "type": "function"
    },
    {
      "inputs": [
        {
          "internalType": "uint256",
          "name": "",
          "type": "uint256"
        }
      ],
      "name": "transfers",
      "outputs": [
        {
          "internalType": "uint256",
          "name": "id",
          "type": "uint256"
        },
        {
          "internalType": "uint256",
          "name": "amount",
          "type": "uint256"
        },
        {
          "internalType": "address payable",
          "name": "to",
          "type": "address"
        },
        {
          "internalType": "uint256",
          "name": "approvals",
          "type": "uint256"
        },
        {
          "internalType": "bool",
          "name": "sent",
          "type": "bool"
        }
      ],
      "stateMutability": "view",
      "type": "function"
    },
    {
      "stateMutability": "payable",
      "type": "receive"
    },
    {
      "inputs": [],
      "name": "getApprovers",
      "outputs": [
        {
          "internalType": "address[]",
          "name": "",
          "type": "address[]"
        }
      ],
      "stateMutability": "view",
      "type": "function"
    },
    {
      "inputs": [
        {
          "internalType": "uint256",
          "name": "amount",
          "type": "uint256"
        },
        {
          "internalType": "address payable",
          "name": "to",
          "type": "address"
        }
      ],
      "name": "createTransfer",
      "outputs": [],
      "stateMutability": "nonpayable",
      "type": "function"
    },
    {
      "inputs": [],
      "name": "getTransfers",
      "outputs": [
        {
          "components": [
            {
              "internalType": "uint256",
              "name": "id",
              "type": "uint256"
            },
            {
              "internalType": "uint256",
              "name": "amount",
              "type": "uint256"
            },
            {
              "internalType": "address payable",
              "name": "to",
              "type": "address"
            },
            {
              "internalType": "uint256",
              "name": "approvals",
              "type": "uint256"
            },
            {
              "internalType": "bool",
              "name": "sent",
              "type": "bool"
            }
          ],
          "internalType": "struct Wallet.Transfer[]",
          "name": "",
          "type": "tuple[]"
        }
      ],
      "stateMutability": "view",
      "type": "function"
    },
    {
      "inputs": [
        {
          "internalType": "uint256",
          "name": "id",
          "type": "uint256"
        }
      ],
      "name": "approveTransfer",
      "outputs": [],
      "stateMutability": "nonpayable",
      "type": "function"
    }
  ],
  "bytecode": "0x60806040523480156200001157600080fd5b50604051620013e3380380620013e38339818101604052620000379190810190620001ef565b81600090805190602001906200004f9291906200005f565b5080600181905550505062000312565b828054828255906000526020600020908101928215620000db579160200282015b82811115620000da5782518260006101000a81548173ffffffffffffffffffffffffffffffffffffffff021916908373ffffffffffffffffffffffffffffffffffffffff1602179055509160200191906001019062000080565b5b509050620000ea9190620000ee565b5090565b6200013191905b808211156200012d57600081816101000a81549073ffffffffffffffffffffffffffffffffffffffff021916905550600101620000f5565b5090565b90565b6000815190506200014581620002de565b92915050565b600082601f8301126200015d57600080fd5b8151620001746200016e8262000277565b62000249565b915081818352602084019350602081019050838560208402820111156200019a57600080fd5b60005b83811015620001ce5781620001b3888262000134565b8452602084019350602083019250506001810190506200019d565b5050505092915050565b600081519050620001e981620002f8565b92915050565b600080604083850312156200020357600080fd5b600083015167ffffffffffffffff8111156200021e57600080fd5b6200022c858286016200014b565b92505060206200023f85828601620001d8565b9150509250929050565b6000604051905081810181811067ffffffffffffffff821117156200026d57600080fd5b8060405250919050565b600067ffffffffffffffff8211156200028f57600080fd5b602082029050602081019050919050565b6000620002ad82620002b4565b9050919050565b600073ffffffffffffffffffffffffffffffffffffffff82169050919050565b6000819050919050565b620002e981620002a0565b8114620002f557600080fd5b50565b6200030381620002d4565b81146200030f57600080fd5b50565b6110c180620003226000396000f3fe60806040526004361061008a5760003560e01c80636cb3e8ef116100595780636cb3e8ef146101405780639377d7111461016b578063cacca4a0146101ac578063d3650fb8146101d5578063ffabc6731461021257610091565b80631703a018146100965780632f65142c146100c15780634c12fa47146100ec57806361b8ce8c1461011557610091565b3661009157005b600080fd5b3480156100a257600080fd5b506100ab61024f565b6040516100b89190610efb565b60405180910390f35b3480156100cd57600080fd5b506100d6610255565b6040516100e39190610e5e565b60405180910390f35b3480156100f857600080fd5b50610113600480360361010e9190810190610b0d565b610380565b005b34801561012157600080fd5b5061012a610554565b6040516101379190610efb565b60405180910390f35b34801561014c57600080fd5b5061015561055a565b6040516101629190610e3c565b60405180910390f35b34801561017757600080fd5b50610192600480360361018d9190810190610ae4565b6105e8565b6040516101a3959493929190610f16565b60405180910390f35b3480156101b857600080fd5b506101d360048036036101ce9190810190610ae4565b61064b565b005b3480156101e157600080fd5b506101fc60048036036101f79190810190610ae4565b6109b7565b6040516102099190610e21565b60405180910390f35b34801561021e57600080fd5b5061023960048036036102349190810190610aa8565b6109f3565b6040516102469190610e80565b60405180910390f35b60015481565b60608060045460405190808252806020026020018201604052801561029457816020015b610281610a22565b8152602001906001900390816102795790505b50905060008090505b60045481101561037857600260008281526020019081526020016000206040518060a001604052908160008201548152602001600182015481526020016002820160009054906101000a900473ffffffffffffffffffffffffffffffffffffffff1673ffffffffffffffffffffffffffffffffffffffff1673ffffffffffffffffffffffffffffffffffffffff168152602001600382015481526020016004820160009054906101000a900460ff16151515158152505082828151811061036057fe5b6020026020010181905250808060010191505061029d565b508091505090565b600080905060008090505b600080549050811015610415573373ffffffffffffffffffffffffffffffffffffffff16600082815481106103bc57fe5b9060005260206000200160009054906101000a900473ffffffffffffffffffffffffffffffffffffffff1673ffffffffffffffffffffffffffffffffffffffff16141561040857600191505b808060010191505061038b565b50600115158115151461045d576040517f08c379a000000000000000000000000000000000000000000000000000000000815260040161045490610ebb565b60405180910390fd5b6040518060a0016040528060045481526020018481526020018373ffffffffffffffffffffffffffffffffffffffff1681526020016000815260200160001515815250600260006004548152602001908152602001600020600082015181600001556020820151816001015560408201518160020160006101000a81548173ffffffffffffffffffffffffffffffffffffffff021916908373ffffffffffffffffffffffffffffffffffffffff1602179055506060820151816003015560808201518160040160006101000a81548160ff021916908315150217905550905050600460008154809291906001019190505550505050565b60045481565b606060008054806020026020016040519081016040528092919081815260200182805480156105de57602002820191906000526020600020905b8160009054906101000a900473ffffffffffffffffffffffffffffffffffffffff1673ffffffffffffffffffffffffffffffffffffffff1681526020019060010190808311610594575b5050505050905090565b60026020528060005260406000206000915090508060000154908060010154908060020160009054906101000a900473ffffffffffffffffffffffffffffffffffffffff16908060030154908060040160009054906101000a900460ff16905085565b600080905060008090505b6000805490508110156106e0573373ffffffffffffffffffffffffffffffffffffffff166000828154811061068757fe5b9060005260206000200160009054906101000a900473ffffffffffffffffffffffffffffffffffffffff1673ffffffffffffffffffffffffffffffffffffffff1614156106d357600191505b8080600101915050610656565b506001151581151514610728576040517f08c379a000000000000000000000000000000000000000000000000000000000815260040161071f90610ebb565b60405180910390fd5b600015156002600084815260200190815260200160002060040160009054906101000a900460ff16151514610792576040517f08c379a000000000000000000000000000000000000000000000000000000000815260040161078990610e9b565b60405180910390fd5b60001515600360003373ffffffffffffffffffffffffffffffffffffffff1673ffffffffffffffffffffffffffffffffffffffff168152602001908152602001600020600084815260200190815260200160002060009054906101000a900460ff16151514610836576040517f08c379a000000000000000000000000000000000000000000000000000000000815260040161082d90610edb565b60405180910390fd5b6001600360003373ffffffffffffffffffffffffffffffffffffffff1673ffffffffffffffffffffffffffffffffffffffff168152602001908152602001600020600084815260200190815260200160002060006101000a81548160ff02191690831515021790555060026000838152602001908152602001600020600301600081548092919060010191905055506001546002600084815260200190815260200160002060030154106109b35760016002600084815260200190815260200160002060040160006101000a81548160ff02191690831515021790555060006002600084815260200190815260200160002060020160009054906101000a900473ffffffffffffffffffffffffffffffffffffffff1690506000600260008581526020019081526020016000206001015490508173ffffffffffffffffffffffffffffffffffffffff166108fc829081150290604051600060405180830381858888f193505050501580156109af573d6000803e3d6000fd5b5050505b5050565b600081815481106109c457fe5b906000526020600020016000915054906101000a900473ffffffffffffffffffffffffffffffffffffffff1681565b60036020528160005260406000206020528060005260406000206000915091509054906101000a900460ff1681565b6040518060a001604052806000815260200160008152602001600073ffffffffffffffffffffffffffffffffffffffff168152602001600081526020016000151581525090565b600081359050610a7881611046565b92915050565b600081359050610a8d8161105d565b92915050565b600081359050610aa281611074565b92915050565b60008060408385031215610abb57600080fd5b6000610ac985828601610a69565b9250506020610ada85828601610a93565b9150509250929050565b600060208284031215610af657600080fd5b6000610b0484828501610a93565b91505092915050565b60008060408385031215610b2057600080fd5b6000610b2e85828601610a93565b9250506020610b3f85828601610a7e565b9150509250929050565b6000610b558383610b97565b60208301905092915050565b6000610b6d8383610d9b565b60a08301905092915050565b610b8281610ffe565b82525050565b610b9181610ffe565b82525050565b610ba081610fec565b82525050565b610baf81610fec565b82525050565b6000610bc082610f89565b610bca8185610fb9565b9350610bd583610f69565b8060005b83811015610c06578151610bed8882610b49565b9750610bf883610f9f565b925050600181019050610bd9565b5085935050505092915050565b6000610c1e82610f94565b610c288185610fca565b9350610c3383610f79565b8060005b83811015610c64578151610c4b8882610b61565b9750610c5683610fac565b925050600181019050610c37565b5085935050505092915050565b610c7a81611010565b82525050565b610c8981611010565b82525050565b6000610c9c602283610fdb565b91507f7472616e736665722068617320616c7265616479206265656e20617070726f7660008301527f65640000000000000000000000000000000000000000000000000000000000006020830152604082019050919050565b6000610d02601683610fdb565b91507f6f6e6c7920617070726f7665727320616c6c6f776564000000000000000000006000830152602082019050919050565b6000610d42602283610fdb565b91507f796f752063616e206e6f7420617070726f7665207472616e736665722074776960008301527f63650000000000000000000000000000000000000000000000000000000000006020830152604082019050919050565b60a082016000820151610db16000850182610e03565b506020820151610dc46020850182610e03565b506040820151610dd76040850182610b79565b506060820151610dea6060850182610e03565b506080820151610dfd6080850182610c71565b50505050565b610e0c8161103c565b82525050565b610e1b8161103c565b82525050565b6000602082019050610e366000830184610ba6565b92915050565b60006020820190508181036000830152610e568184610bb5565b905092915050565b60006020820190508181036000830152610e788184610c13565b905092915050565b6000602082019050610e956000830184610c80565b92915050565b60006020820190508181036000830152610eb481610c8f565b9050919050565b60006020820190508181036000830152610ed481610cf5565b9050919050565b60006020820190508181036000830152610ef481610d35565b9050919050565b6000602082019050610f106000830184610e12565b92915050565b600060a082019050610f2b6000830188610e12565b610f386020830187610e12565b610f456040830186610b88565b610f526060830185610e12565b610f5f6080830184610c80565b9695505050505050565b6000819050602082019050919050565b6000819050602082019050919050565b600081519050919050565b600081519050919050565b6000602082019050919050565b6000602082019050919050565b600082825260208201905092915050565b600082825260208201905092915050565b600082825260208201905092915050565b6000610ff78261101c565b9050919050565b60006110098261101c565b9050919050565b60008115159050919050565b600073ffffffffffffffffffffffffffffffffffffffff82169050919050565b6000819050919050565b61104f81610fec565b811461105a57600080fd5b50565b61106681610ffe565b811461107157600080fd5b50565b61107d8161103c565b811461108857600080fd5b5056fea26469706673582212202334bd1b99aad66b5ad961a131dc264f9bde9560797edbe0527800d232d38e9564736f6c63430006000033",
  "source": "pragma solidity 0.6.0;\r\npragma experimental ABIEncoderV2;\r\n//experimental pragma allows us to return a struct \r\ncontract Wallet{\r\n  address [] public approvers;\r\n  uint public quorum;\r\n  struct Transfer{\r\n    uint id;\r\n    uint amount;\r\n    address payable to;\r\n    uint approvals;\r\n    bool sent;\r\n  }\r\n  mapping (uint => Transfer) public transfers;\r\n  mapping (address => mapping(uint => bool)) public approvals;\r\n  uint public nextId;\r\n  constructor(address [] memory _approvers, uint _quorum)public {\r\n    approvers = _approvers;\r\n    quorum=_quorum;\r\n  }\r\n  function getApprovers() external view returns(address [] memory){\r\n    return approvers;\r\n  }\r\n  function createTransfer(uint amount, address payable to) external onlyApprover(){\r\n    transfers[nextId] = Transfer(\r\n      nextId,\r\n      amount,\r\n      to,\r\n      0,\r\n      false\r\n    );\r\n    nextId++;\r\n  }\r\n  function getTransfers() external view returns(Transfer [] memory){\r\n    Transfer[] memory tr = new Transfer[](nextId);\r\n    for (uint i = 0; i < nextId; i++) {\r\n        tr[i] = transfers[i];\r\n    }\r\n    return tr;\r\n  }\r\n  function approveTransfer(uint id) external onlyApprover(){\r\n    require(transfers[id].sent == false, \"transfer has already been approved\");\r\n    require(approvals[msg.sender][id]== false, \"you can not approve transfer twice\");\r\n    approvals[msg.sender][id]= true;\r\n    transfers[id].approvals++;\r\n    if(transfers[id].approvals >= quorum){\r\n      transfers[id].sent =true;\r\n      address payable to = transfers[id].to;\r\n      uint amount = transfers[id].amount;\r\n      to.transfer(amount);\r\n    }\r\n  }\r\n  //receives ether\r\n  receive() external payable {}\r\n\r\n  modifier onlyApprover(){\r\n    bool allowed = false;\r\n    for (uint i=0; i< approvers.length; i++){\r\n      if (approvers[i] == msg.sender){\r\n        allowed =true;\r\n      }\r\n    }\r\n    require(allowed == true, \"only approvers allowed\");\r\n    _;\r\n  }\r\n}",
  "sourcePath": "C:/Users/User/Desktop/project/mulit-sig wallet/smart contract/contracts/Wallet.sol",
  "compiler": {
    "name": "solc",
    "version": "0.6.0+commit.26b70077.Emscripten.clang"
  },
  "schemaVersion": "3.4.1",
  "updatedAt": "2021-06-06T04:05:55.013Z",
  "devdoc": {
    "methods": {}
  },
  "userdoc": {
    "methods": {}
  }
}